:020000040800F2
:10000000E8060020890100085F1500086714000851
:100010005D150008710300081917000800000000B2
:100020000000000000000000000000006315000850
:100030007303000800000000611500087D1500082A
:10004000A3010008A3010008A3010008A301000800
:10005000A3010008A3010008A3010008A3010008F0
:10006000A3010008A3010008A3010008A3010008E0
:10007000A3010008A3010008A3010008A3010008D0
:10008000A3010008A301000891020008A3010008D1
:10009000A3010008A3010008A3010008A3010008B0
:1000A000A3010008A3010008A3010008A3010008A0
:1000B000A3010008A3010008A3010008A301000890
:1000C000A3010008A3010008A3010008A301000880
:1000D000A3010008A3010008A3010008A301000870
:1000E000A3010008A3010008A301000800F002F822
:1000F00000F03AF80AA090E8000C82448344AAF188
:100100000107DA4501D100F02FF8AFF2090EBAE885
:100110000F0013F0010F18BFFB1A43F0010318473B
:10012000A0160000C0160000103A24BF78C878C19D
:10013000FAD8520724BF30C830C144BF04680C60ED
:10014000704700000023002400250026103A28BF35
:1001500078C1FBD8520728BF30C148BF0B60704739
:100160001FB51FBD10B510BD00F058F81146FFF7C0
:10017000F7FF01F0E3FA00F076F803B4FFF7F2FFBF
:1001800003BC00F07DF8000009488047094800479B
:10019000FEE7FEE7FEE7FEE7FEE7FEE7FEE7FEE737
:1001A000FEE7FEE704480549054A064B7047000094
:1001B000F9150008ED000008E8000020E80600201E
:1001C000E8020020E80200204FF0000200B51346CC
:1001D00094469646203922BFA0E80C50A0E80C5067
:1001E000B1F12001BFF4F7AF090728BFA0E80C5018
:1001F00048BF0CC05DF804EB890028BF40F8042B11
:1002000008BF704748BF20F8022B11F0804F18BF7D
:1002100000F8012B7047704770477047754600F033
:100220002BF8AE4605006946534620F00700854688
:1002300018B020B5FFF7B6FFBDE820404FF000062C
:100240004FF000074FF000084FF0000B21F00701BE
:10025000AC46ACE8C009ACE8C009ACE8C009ACE801
:10026000C0098D46704710B50446AFF300802046A4
:10027000BDE81040FFF781BF0048704788000020AC
:1002800001491820ABBEFEE72600020070470000BF
:10029000014800F070B900001400002070B5044659
:1002A00000688168C943C90717D1816821F001013D
:1002B000816000F00DFC05460AE000BF00F008FC7C
:1002C000401B022804D920688068C043C00706D0BC
:1002D00020688068C043C007F0D0002070BDA06ACD
:1002E00040F01000A062E06A40F00100E0620120EE
:1002F00070BD0000F8B500260446009600688168CD
:10030000C943C9072DD0816841F0010181601648B9
:1003100016490068B0FBF1F000E0401E0090002894
:10032000FBD100F0D5FB054616E000BF00F0D0FB86
:10033000401B022810D920688068C043C0070BD03A
:10034000A06A40F01000A062E06A40F00100E062A4
:1003500084F824600120F8BD20688068C043C0078D
:10036000E4D10020F8BD00001000002040420F0042
:10037000FEE7704772B6FEE7F8B500250446009523
:1003800090F82400012808D0012084F82400204699
:10039000FFF784FF060002D053E00220F8BDA06AF8
:1003A00020F4885040F00200A062022000F02EFCF1
:1003B00026490968B1FBF0F0400000E0401E0090C3
:1003C0000028FBD12046FFF795FF2068816841F0A7
:1003D0000801816000F07CFB074608E000F078FB34
:1003E000C01B0A2803D920688068000715D420683C
:1003F00080680007F2D42068816841F004018160C0
:1004000000F066FB074612E000F062FBC01B0A2802
:100410000DD920688068400709D5A06A20F0020045
:1004200040F01000A06284F824500120F8BD20683C
:1004300080684007E8D4A06A20F0020040F0010084
:10044000A06284F824503046F8BD0000100000205F
:1004500070470000F8B50024009490F82420254649
:10046000012A12D0012280F824204A681F23072A7B
:100470000DD20668776B521E02EB820293409F43B7
:100480000B6893401F43776319E00220F8BD0668AC
:100490000D2A0AD2376BD21F02EB820293409F4390
:1004A0000B6893401F43376309E0F76A0D3A02EB8C
:1004B000820293409F430B6893401F43F7620A6890
:1004C000072306680A2A0AD3F7680A3A02EB4202AF
:1004D00093409F438B6893401F43F76008E0376960
:1004E00002EB420293409F438B6893401F43376166
:1004F0000A68102A01D0112A20D1124B02689A42B0
:1005000017D193681B0219D4936843F400039360D6
:100510000968102912D10C490C4A0968B1FBF2F1A3
:1005200001EB8101490000E0491E00910029FBD147
:1005300004E0816A41F020018162012480F82450A6
:100540002046F8BD002401401000002040420F006A
:1005500010B5054A0168914205D100F009F8034938
:1005600048800120087010BD0024014000000020D8
:100570000068C06C704710B5044600684168890681
:1005800026D50168890723D5A16AC90603D4A16AC3
:1005900041F40071A1628168C1F34241072910D181
:1005A000217B71B9416821F020014160A06A20F4EB
:1005B0008070A062A06AC00403D4A06A40F0010069
:1005C000A0622046FFF7C4FF21686FF012000860A8
:1005D0002068416809062ED5016849072BD5A16A14
:1005E000C90603D4A16A41F40051A1628168C1F334
:1005F0000231072909D04168490515D48168C1F342
:100600004241072910D1217B71B9416821F0800155
:100610004160A06A20F48050A062A06AC00503D4A3
:10062000A06A40F00100A0622046FFF711FF216898
:100630006FF00C0008602068416849060DD500681D
:10064000C0070AD0A06A40F48030A062204600F0C3
:1006500093F821686FF00100086010BD2DE9F041AA
:100660004FF0000704003D467ED0A06A002628B95E
:10067000E66284F82460204600F080F82046FFF708
:100680000DFEA16A01F01001014304D0A06A40F000
:100690001000A06268E0A16A21F4885141F00201D3
:1006A000A1626268E169237B0A4347EA43010A4386
:1006B000A1684FF48077B94208D0012906D0002103
:1006C00094F814C0BCF1010F02D00AE03946F7E7F4
:1006D000F3B1A36A43F02003A362E36A43F001038A
:1006E000E3622368D3F804C02CF4694C4CEA010C93
:1006F000C3F804C023689968DFF870C001EA0C01F0
:1007000011439960A168B9420BD0012909D00CE0CE
:10071000DFF85CC0A3690CEB43330B4343F4006187
:10072000DFE7218A0D05A5F580152168CB6A23F442
:1007300070032B43CB62216889680E4B19409142AC
:1007400008D1E662A16A21F0020141F00101A16233
:10075000BDE8F081A06A20F0020040F01000A06225
:10076000E06A40F00100E0620120F1E7FDF7E1FFFF
:1007700000E0FFFFFE0E1FFF7047000000B585B0D0
:100780000021009101910291039100681249884271
:1007900020D11248816941F400718161816901F4BD
:1007A00000710491816941F00401816180696946A9
:1007B00000F00400049001200090032001900848FC
:1007C00000F088F800220721122000F0EDF9122035
:1007D00000F0DCF905B000BD00240140001002402B
:1007E0000008014070B5044690F8240001280DD09F
:1007F000012084F824002046FFF77CFD02004FF022
:10080000000005D084F82400104670BD022070BDA1
:10081000A16A40F60163994341F48071A162224DBF
:1008200023682249AB4218D10E6816F4702F14D0F9
:10083000A66A46F48016A6620E68760505D5A66AF5
:1008400026F4005646F48056A662A66AF6040AD537
:10085000E66A26F00606E66206E0A66A26F4801638
:10086000A6625E68E9E7E06284F824006FF00200A7
:1008700018602068436843F0200343602068836861
:10088000C3F34243072B05D1A84208D1096811F4EC
:10089000702F04D0816841F480118160B4E78168D1
:1008A00041F4A001F9E700000028014004240140C0
:1008B00070B5044600F00CF90546601C02D00448EF
:1008C0000078044400F004F9401BA042FAD370BD44
:1008D000040000202DE9F84FDFF8B891002409F159
:1008E000040A0AF1040B23460F270BF1040EC9E09A
:1008F0000125A5402A40AA427DD1674ED1F804C007
:10090000ACEB0608B44532D014DCBCF1030F3AD08E
:1009100009DCBCF1000F2AD0BCF1010F1CD0BCF1E6
:10092000020F31D11DE0BCF1110F17D0BCF1120F35
:100930002AD119E0B8F5881F19D006DCB8F5803F38
:1009400015D0B8F5801F1FD111E0B8F5001F0ED0EB
:10095000B8F5041F18D10AE0CB6815E0CB681B1D61
:1009600012E0CB6808330FE0CB680C330CE08B68E7
:100970002BB1012B4FF0080303D0456104E00423A1
:1009800002E0056100E00023FF2A01D8064601E0ED
:1009900000F104064FEA840501D9A5F12005D6F837
:1009A000008007FA05FC28EA0C0803FA05F548EA76
:1009B0000508C6F800804D68ED0062D5374DAE6978
:1009C00046F00106AE61AD6924F0030605F00105AD
:1009D0000095334D06EB050CDCF80850A607360FE2
:1009E00007FA06F825EA0805DFF8B880404503D184
:1009F0004FF0000817E044E0DFF8AC80404502D13A
:100A00004FF001080FE0DFF8A480404502D14FF01D
:100A1000020808E0DFF89880404502D14FF0030853
:100A200001E04FF0040808FA06F848EA0508CCF897
:100A300008804D68D9F80060ED034D4601D5164396
:100A400000E096432E604D68DAF80060AD0355462D
:100A500001D5164300E096432E604D68DBF8006038
:100A6000ED025D4601D5164300E096432E604D68C9
:100A7000DEF80060AD02754601D5164300E09643EE
:100A80002E60641C0D682A46E5407FF431AFBDE856
:100A9000F88F000000040140000011100010024017
:100AA0000000014000080140000C0140001001401E
:100AB00000140140C26821EA02030A4043EA0241ED
:100AC000016170470AB1016170470904FBE700004A
:100AD00001488068704700000400002002488168D7
:100AE000027811448160704704000020074810B567
:100AF000016841F010010160032000F075F80F203B
:100B000000F006F800F024F8002010BD002002409C
:100B100070B50D4D04464FF47A712878B1FBF0F0B2
:100B20000A490968B1FBF0F000F0C6FB48B9102C87
:100B300007D200222146501E00F036F800206C60DB
:100B400070BD012070BD00000400002010000020D6
:100B50000C4808B5816941F001018161816901F0AA
:100B600001010091C16941F08051C161C06900F08B
:100B7000805000900448416821F0E06141F000712C
:100B8000416008BD0010024000000140002809DB60
:100B900000F01F02012191404009800000F1E02097
:100BA000C0F8001170470000F0B40E4B1B680C46F3
:100BB000C3F30223C3F10705042D00D90425191D31
:100BC000072901D2002300E0DB1E012606FA05F109
:100BD000491E214099409E40761E16403143F0BC8C
:100BE00000F09BBD0CED00E0064900F0070208682C
:100BF0004FF6FF03184040EA0220034A1043086002
:100C0000704700000CED00E00000FA0510B529A4C3
:100C100001461DCC86B08DE81D002AA02A4C006834
:100C200004900020012923D002293AD010291DD197
:100C300061682268D20119D5C1F38342C9031DF846
:100C4000020009D5616804AAC1F34041515C1F4A02
:100C5000B2FBF1F1484301E01D4948436168490294
:100C600004D440005FF00301B0FBF1F006B010BD0A
:100C7000226AC2F30121012903D1920701D5C803D9
:100C8000F4E7022905D1626A920702D549F640408D
:100C9000ECE70329EAD121688903E7D54FF2244024
:100CA000E4E700F033F96168C1F38131491C490080
:100CB000DAE7000002030405060708090A0B0C0D19
:100CC0000E0F1010010200000010024000127A0006
:100CD00000093D002DE9F84305460078354CC00772
:100CE00054D0E0690026C00008D4E06940F080508C
:100CF000E061E069012600F0805000902E48016814
:100D0000C90512D40168804641F480710160FFF783
:100D1000DFFE074605E000BFFFF7DAFEC01B6428D0
:100D200023D8D8F80000C005F6D5206A10F440702A
:100D300021D0A98801F4407181421CD0206A1F494A
:100D4000012220F440700A6000220A602062C0077D
:100D500011D0FFF7BDFE074641F2883808E000BF1A
:100D6000FFF7B6FEC11B414502D90320BDE8F88359
:100D7000206A8007F4D5206A696820F4407008432F
:100D800020621EB1E06920F08050E0612878800781
:100D900005D56068A96820F4404008436060287861
:100DA000C00605D56068E96820F4800008436060EB
:100DB0000020DBE700100240007000404004424287
:100DC0002DE9F0470F46050061D0434E306800F032
:100DD0000700B84209D2306820F00700384330607D
:100DE000306800F00700B84251D128683B4C8107B9
:100DF00012D5400703D5606840F4E0606060287851
:100E0000000703D5606840F4605060606068A968BE
:100E100020F0F000084360602878C00728D0686898
:100E2000012810D02168022810D0890700292EDA65
:100E3000616821F0030101436160FFF749FE8046CC
:100E400041F288390DE021688903EFE78901EDE778
:100E5000FFF73EFEA0EB0801494502D90320BDE89B
:100E6000F0876068696800F00C00B0EB810FEFD18B
:100E7000306800F00700B8420BD9306820F0070056
:100E800038433060306800F00700B84201D00120DC
:100E9000E5E72878400705D56068E96820F4E06058
:100EA000084360602878000706D56068296920F447
:100EB000605040EAC100606000F038F86168084A9C
:100EC000C1F30311515CC840064908600648006838
:100ED000FFF71EFE0020C2E7002002400010024083
:100EE000A817000810000020080000200448054949
:100EF00000684968044AC1F30221515CC840704748
:100F00001000002000100240B817000804480549EE
:100F100000684968044AC1F3C221515CC840704767
:100F20001000002000100240B817000812A185B080
:100F30000FC98DE80F0014A0144A0068049051688E
:100F4000134801F00C03042B10D0082B0ED1C1F371
:100F50008343C9031DF803000AD5516804AAC1F3ED
:100F60004041515C0A4A5043B0FBF1F005B0704774
:100F700008494843FAE70000020304050607080988
:100F80000A0B0C0D0E0F10100102000000100240A1
:100F900000127A0000093D002DE9F84F040070D0DE
:100FA0002078C04DC00749D06868C0F3810001288F
:100FB00007D06868C0F38100022809D16868C003BF
:100FC00006D52868800339D560680028E7D035E069
:100FD0006068B0F5803F0BD010B1B0F5A02F11D0F4
:100FE000286820F480302860286820F4802002E0FF
:100FF000286840F480302860606890B1FFF768FD91
:1010000006460AE0286840F480202860F0E700BF28
:10101000FFF75EFD801B642873D828688003F7D52E
:101020000CE0FFF755FD064605E000BFFFF750FD59
:10103000801B6428F0D828688003F7D420789A4E63
:1010400080074FF001094FF0000839D5686810F0AB
:101050000C0F07D06868C0F38100022809D16868C6
:10106000C00306D42868800714D52069012808D158
:1010700010E02069B0B1C6F80090FFF729FD0746DF
:1010800005E00AE1FFF724FDC01B0228C4D8286848
:101090008007F7D52868616920F0F80040EAC100B0
:1010A00028600DE0C6F80080FFF712FD074604E057
:1010B000FFF70EFDC01B022823D828688007F7D44D
:1010C000207800072CD57948A169D9B1C0F80090E3
:1010D000FFF7FEFC074604E0FFF7FAFCC01B0228FE
:1010E0000FD8686A8007F7D571484FF4FA51006845
:1010F000B0FBF1F0009000BF0098411E0091FAD2C1
:101100000EE080E0C0F80080FFF7E2FC074604E054
:10111000FFF7DEFCC01B022875D8686A8007F7D489
:101120002078400760D5E8690027C00008D4E86946
:1011300040F08050E861E869012700F0805000909D
:101140005C480168C90513D40168834641F4807185
:101150000160FFF7BDFC824606E000BFFFF7B8FC68
:10116000A0EB0A0064284ED8DBF80000C005F5D5D6
:10117000E06801280AD008B1052813D0286A20F0B9
:1011800001002862286A20F0040002E0286A40F08A
:1011900001002862E06841F2883B98B1FFF798FCB3
:1011A00082460BE0286A40F004002862EEE700BFA8
:1011B000FFF78EFCA0EB0A0159455AD8286A800730
:1011C000F6D50CE0FFF784FC824605E0FFF780FCD3
:1011D000A0EB0A0159454CD8286A8007F6D41FB104
:1011E000E86920F08050E861E06988B36968C1F37C
:1011F0008101022944D00228C6F8608004D0FFF79C
:1012000067FC044638E034E0FFF762FC074604E080
:10121000FFF75EFCC01B02282BD828688001F7D49A
:10122000206AB0F5803F05D16868A16820F40030DD
:1012300008436860D4E908010843696821F474111F
:1012400008436860C6F86090FFF742FC044606E079
:1012500025E000BFFFF73CFC001B022809D82868E6
:101260008001F7D51BE000BFFFF732FC001B02280E
:1012700002D90320BDE8F88F28688001F4D40EE07D
:101280000128F7D06868226A00F48031914204D1C5
:10129000616A00F47010884201D00120EAE7002062
:1012A000E8E7000000100240000042428004424291
:1012B000100000200070004010B5401EB0F1807F8B
:1012C00001D3012010BD4FF0E02460610F216017B1
:1012D00000F023FA0020A06107202061002010BD4B
:1012E00070B5040004D094F83D00002510B106E06C
:1012F000012070BD84F83C50204600F023F82420E3
:1013000084F83D002068C16821F40051C160204686
:1013100000F074F92068016921F4904101612068AE
:10132000416921F02A0141612068C16841F40051FE
:10133000C1602564202084F83D0084F83E00002030
:1013400070BD000030B585B0002400940194029473
:10135000039400681449884224D11448816941F4F7
:1013600080418161816901F480410491816941F08A
:101370000401816180690E4D00F0040004904FF477
:1013800000700090022001900320039069462846D7
:10139000FFF7A0FA2815CDE9000469462846029413
:1013A000FFF798FA05B030BD003801400010024048
:1013B000000801402DE9F843044690F83D001F461F
:1013C00016460D4620284CD1C5B1BEB194F83C005C
:1013D000012846D0012084F83C004FF00008C4F8F2
:1013E0004080212084F83D00FFF772FBA6848146EF
:1013F000E684A068B0F5805F03D004E00120BDE87A
:10140000F883206928B12E465FF0000584F83C80FF
:101410000EE00026FAE78021204600F04BF9A0B943
:10142000AEB116F8010B21684860E08C401EE084E4
:10143000E08C4B464FF0000200970028EBD14FF0B4
:101440004001204600F036F930B10320D7E735F8E7
:10145000020BC0F30800E6E7202084F83D000020DE
:10146000CDE70220CBE7FEE73EB50024104800940C
:10147000019402940D49846001600125057304758F
:1014800005614FF460214460C161FFF7E7F808B1DE
:10149000FEF770FFCDE90045694605480294FEF766
:1014A000D9FF002801D0FEF765FF3EBD00240140B2
:1014B0001400002070B586B00024184800940194F0
:1014C00002940394816941F010018161816901F006
:1014D00010010491816941F020018161816901F06D
:1014E00020010491816941F00401816180690C4E01
:1014F00000F004004FF400550490002229463046C5
:10150000FFF7E0FA01200095CDE9010402200390E5
:1015100069463046FFF7DEF906B070BD00100240A4
:10152000001001400C4810B50A4901604FF4E13148
:101530004160002181600C22C160C0E90412816118
:10154000C161FFF7CDFE002803D0BDE81040FEF7D3
:1015500011BF10BD0038014044000020FEE7FEE747
:101560007047704708B50A0A8DF800208DF8011001
:10157000642302226946FFF71DFF08BDFFF7AEBADC
:1015800030B593B028216846FEF71EFE14210AA844
:10159000FEF71AFE002501200F9510951195010404
:1015A00012958DE8230004904FF4E010CDE9081067
:1015B000022407946846FFF7EFFC08B172B6FEE715
:1015C0000AA90F2081E831004FF48060CDE90D05B4
:1015D00002210AA8FFF7F4FB08B172B6FEE74FF448
:1015E000004011900F940FA8FFF774FB002801D062
:1015F00072B6FEE713B030BD7047000070B5044608
:1016000000680169E26821F44051114301612169D8
:10161000A0680843616908432168CA6841F20C6305
:101620009A430243CA6020684169A26921F440716B
:10163000114341611E492068884202D1FFF766FCD0
:1016400001E0FFF753FC00EBC00101EB0012606802
:1016500064218000B2FBF0F3B3FBF1F36FF01806E6
:101660007343B2FBF0F5B2FBF0F605EB83053223D2
:1016700003EB0515B5FBF1F5B6FBF1F605F0F0054A
:1016800005EB0615B2FBF0F6B2FBF0F0B0FBF1F0A3
:101690006FF01802504306EB800003EB0010B0FB24
:1016A000F1F0216800F00F002844886070BD000050
:1016B000003801402DE9F041984617460E46044691
:1016C000069D1DE0681C1BD02DB1FFF701FAA0EBB1
:1016D0000800A84214D92068C16821F4D071C16003
:1016E0002068416921F001014161202084F83D001A
:1016F00084F83E00002084F83C000320BDE8F0811F
:101700002068006836EA000004D00020B842D9D032
:101710000020F3E70120F9E7FEE70907090E00289A
:1017200004DB00F1E02080F80014704700F00F00A7
:1017300000F1E02080F8141D704700000024FFF73E
:10174000D5F9FFF71DFFFFF7B5FEFFF78DFEFFF799
:10175000E9FE1048FEF710FE0E48FFF743F80E4D65
:101760000E4FDFF83C9000264FF40058287820B147
:1017700039880C48FFF7F6FE2E70322C04D1414612
:101780004846FFF797F900240A20FFF791F8641CF8
:10179000E4B2EBE71400002000000020020000206B
:1017A0000010014044000020000000000000000084
:1017B00001020304060708090000000001020304F7
:1017C000E0170008000000201400000028010008B5
:1017D000F417000814000020D4060000440100089B
:1017E00000000000010000001000000000000000E8
:0417F0000024F400DD
:04000005080000ED02
:00000001FF
