:020000040800F2
:10000000B806002091010008FF0F0008530F0008F8
:10001000FD0F0008C9040008851100080000000059
:1000200000000000000000000000000003100008B5
:10003000CB040008000000000110000805100008B3
:10004000AB010008AB010008AB010008AB010008E0
:10005000AB010008AB010008AB010008AB010008D0
:10006000AB010008AB010008AB010008AB010008C0
:10007000AB010008AB010008AB010008AB010008B0
:10008000AB010008AB010008AB010008AB010008A0
:10009000AB010008AB010008AB010008AB01000890
:1000A000AB010008AB010008AB010008AB01000880
:1000B000AB010008AB010008AB010008AB01000870
:1000C000AB010008AB010008AB010008AB01000860
:1000D000AB010008AB010008AB010008AB01000850
:1000E000AB010008AB010008AB01000800F002F80A
:1000F00000F03EF80AA090E8000C82448344AAF184
:100100000107DA4501D100F033F8AFF2090EBAE881
:100110000F0013F0010F18BFFB1A43F0010318473B
:100120004011000060110000103A24BF78C878C167
:10013000FAD8520724BF30C830C144BF04680C60ED
:10014000704700000023002400250026103A28BF35
:1001500078C1FBD8520728BF30C148BF0B60704739
:100160001FB59DE8030000F0A9F81FBD10B510BD34
:1001700000F028F91146FFF7F3FF01F015F800F041
:1001800046F903B4FFF7F2FF03BC00F077F9000073
:100190000948804709480047FEE7FEE7FEE7FEE71B
:1001A000FEE7FEE7FEE7FEE7FEE7FEE70448054957
:1001B000054A064B7047000067100008ED00000874
:1001C000B8000020B8060020B8020020B8020020C5
:1001D00070B5064600F056F8056806F10B0020F0F1
:1001E0000704B4429CBF002070BD2B466A68BAB1B8
:1001F0001068A04210D304F1080188423CBF506847
:10020000586007D35168101941601168091B0160DB
:1002100058601460101D70BD13465268002AE7D163
:100220002146284600F036F80028DED170BD4FF098
:10023000000200B5134694469646203922BFA0E836
:100240000C50A0E80C50B1F12001BFF4F7AF090742
:1002500028BFA0E80C5048BF0CC05DF804EB890033
:1002600028BF40F8042B08BF704748BF20F8022B76
:1002700011F0804F18BF00F8012B7047704770478E
:1002800070470000004870475C00002070477047CE
:100290007047704738B504460A4600206946AFF3F8
:1002A0000080002808BF38BD02460099204600F0B3
:1002B00067F8012038BD012000F07CB8F8B5AFF335
:1002C0000080054600200C46102000BF0646A819F5
:1002D000A0420DD9324669460020AFF300800700E6
:1002E00008BF00F067F80098A04218BF0546C4197F
:1002F000FFF7C8FF05600746F01D20F0070046190C
:10030000284600F00AF8B44208BFF8BDA21B3146E7
:100310003868BDE8F84000F033B800210160C0E95A
:10032000011070471020704770B50446051FFFF795
:10033000A9FF0068002C14BF446870BD002C18BFD2
:10034000AC423CBF20466468F8D301680A18AA4250
:1003500018BF456003D12A6805461144016028682A
:100360004119A1421CBF6C6070BD61686960216861
:100370000844286070BD0000004870475400002009
:10038000034640688C46002818BF88423CBF03469D
:100390004068F8D318681844884207D00CF103006D
:1003A00020F00700001D411A521A0146081D0A607C
:1003B000FFF7BABF10B500F039F8BDE8104000F003
:1003C0002FB870477546FFF7D7FFAE460500694660
:1003D000534620F00700854618B020B5FFF7E6FE2B
:1003E000BDE820404FF000064FF000074FF0000836
:1003F0004FF0000B21F00701AC46ACE8C009ACE8B7
:10040000C009ACE8C009ACE8C0098D46704710B51A
:100410000446AFF300802046BDE81040FFF7B1BEB0
:10042000002801D000F02AB87047000010B501285C
:1004300005D0002103A000F027F8012010BD09A17C
:10044000F8E7000053494752544D454D3A204F7547
:1004500074206F662068656170206D656D6F7279BC
:10046000000000003A2048656170206D656D6F7274
:100470007920636F72727570746564000149182089
:10048000ABBEFEE72600020070B505460C460A200A
:1004900000E06D1C00F011F835B128780028F8D183
:1004A00002E0641C00F009F814B120780028F8D1AB
:1004B000BDE870400A20AFF3008008B569468DF8AA
:1004C00000000320ABBE08BDFEE7704772B6FEE732
:1004D0002DE9F84FDFF8B891002409F1040A0AF178
:1004E000040B23460F270BF1040EC9E00125A5409C
:1004F0002A40AA427DD1674ED1F804C0ACEB060871
:10050000B44532D014DCBCF1030F3AD009DCBCF1A5
:10051000000F2AD0BCF1010F1CD0BCF1020F31D169
:100520001DE0BCF1110F17D0BCF1120F2AD119E058
:10053000B8F5881F19D006DCB8F5803F15D0B8F59E
:10054000801F1FD111E0B8F5001F0ED0B8F5041FB1
:1005500018D10AE0CB6815E0CB681B1D12E0CB6810
:1005600008330FE0CB680C330CE08B682BB1012B08
:100570004FF0080303D0456104E0042302E0056165
:1005800000E00023FF2A01D8064601E000F104063E
:100590004FEA840501D9A5F12005D6F8008007FAB5
:1005A00005FC28EA0C0803FA05F548EA0508C6F830
:1005B00000804D68ED0062D5374DAE6946F001060A
:1005C000AE61AD6924F0030605F001050095334DD9
:1005D00006EB050CDCF80850A607360F07FA06F8FC
:1005E00025EA0805DFF8B880404503D14FF0000840
:1005F00017E044E0DFF8AC80404502D14FF001083D
:100600000FE0DFF8A480404502D14FF0020808E077
:10061000DFF89880404502D14FF0030801E04FF029
:10062000040808FA06F848EA0508CCF808804D687E
:10063000D9F80060ED034D4601D5164300E096431E
:100640002E604D68DAF80060AD03554601D51643BB
:1006500000E096432E604D68DBF80060ED025D46D9
:1006600001D5164300E096432E604D68DEF8006029
:10067000AD02754601D5164300E096432E60641C1A
:100680000D682A46E5407FF431AFBDE8F88F0000E1
:100690000004014000001110001002400000014061
:1006A00000080140000C014000100140001401400E
:1006B000C26821EA02030A4043EA0241016170472D
:1006C0000AB1016170470904FBE700000148806836
:1006D0007047000000000020024881680278114441
:1006E0008160704700000020074810B5016841F0A4
:1006F00010010160032000F067F80F2000F006F8F9
:1007000000F024F8002010BD0020024070B50D4D0F
:1007100004464FF47A712878B1FBF0F00A49096871
:10072000B1FBF0F000F0DEFA48B9102C07D200223D
:100730002146501E00F028F800206C6070BD01209A
:1007400070BD0000000000200C0000200C4808B51F
:10075000816941F001018161816901F0010100912C
:10076000C16941F08051C161C06900F080500090C2
:100770000448416821F0E06141F00071416008BD2A
:100780000010024000000140F0B40E4B1B680C4604
:10079000C3F30223C3F10705042D00D90425191D55
:1007A000072901D2002300E0DB1E012606FA05F12D
:1007B000491E214099409E40761E16403143F0BCB0
:1007C00000F0E1BC0CED00E0064900F0070208680B
:1007D0004FF6FF03184040EA0220034A1043086026
:1007E000704700000CED00E00000FA052DE9F0472D
:1007F0000F46050061D0434E306800F00700B84254
:1008000009D2306820F0070038433060306800F0CB
:100810000700B84251D128683B4C810712D54007E8
:1008200003D5606840F4E06060602878000703D575
:10083000606840F4605060606068A96820F0F00073
:10084000084360602878C00728D06868012810D065
:100850002168022810D0890700292EDA616821F06A
:10086000030101436160FFF731FF804641F288399F
:100870000DE021688903EFE78901EDE7FFF726FF27
:10088000A0EB0801494502D90320BDE8F087606864
:10089000696800F00C00B0EB810FEFD1306800F018
:1008A0000700B8420BD9306820F0070038433060A9
:1008B000306800F00700B84201D00120E5E7287851
:1008C000400705D56068E96820F4E060084360608F
:1008D0002878000706D56068296920F4605040EA4E
:1008E000C100606000F038F86168084AC1F3031184
:1008F000515CC8400649086006480068FFF706FFDB
:100900000020C2E700200240001002404812000808
:100910000C000020040000200448054900684968D4
:10092000044AC1F30221515CC84070470C0000200A
:100930000010024058120008044805490068496840
:10094000044AC1F3C221515CC84070470C0000202A
:10095000001002405812000812A185B00FC98DE89E
:100960000F0014A0144A006804905168134801F065
:100970000C03042B10D0082B0ED1C1F38343C90301
:100980001DF803000AD5516804AAC1F34041515C27
:100990000A4A5043B0FBF1F005B07047084948439C
:1009A000FAE7000002030405060708090A0B0C0D0C
:1009B0000E0F1010010200000010024000127A0019
:1009C00000093D002DE9F84F040070D02078C04D9B
:1009D000C00749D06868C0F38100012807D0686863
:1009E000C0F38100022809D16868C00306D52868D1
:1009F000800339D560680028E7D035E06068B0F53D
:100A0000803F0BD010B1B0F5A02F11D0286820F492
:100A100080302860286820F4802002E0286840F4B4
:100A200080302860606890B1FFF750FE06460AE00B
:100A3000286840F480202860F0E700BFFFF746FEFA
:100A4000801B642873D828688003F7D50CE0FFF773
:100A50003DFE064605E000BFFFF738FE801B642818
:100A6000F0D828688003F7D420789A4E80074FF09A
:100A700001094FF0000839D5686810F00C0F07D055
:100A80006868C0F38100022809D16868C00306D4F1
:100A90002868800714D52069012808D110E0206952
:100AA000B0B1C6F80090FFF711FE074605E00AE175
:100AB000FFF70CFEC01B0228C4D828688007F7D5B2
:100AC0002868616920F0F80040EAC10028600DE064
:100AD000C6F80080FFF7FAFD074604E0FFF7F6FDD1
:100AE000C01B022823D828688007F7D42078000785
:100AF0002CD57948A169D9B1C0F80090FFF7E6FD7F
:100B0000074604E0FFF7E2FDC01B02280FD8686A21
:100B10008007F7D571484FF4FA510068B0FBF1F047
:100B2000009000BF0098411E0091FAD20EE080E0D4
:100B3000C0F80080FFF7CAFD074604E0FFF7C6FDD6
:100B4000C01B022875D8686A8007F7D42078400750
:100B500060D5E8690027C00008D4E86940F08050FB
:100B6000E861E869012700F0805000905C48016866
:100B7000C90513D40168834641F480710160FFF711
:100B8000A5FD824606E000BFFFF7A0FDA0EB0A002E
:100B900064284ED8DBF80000C005F5D5E0680128D0
:100BA0000AD008B1052813D0286A20F00100286275
:100BB000286A20F0040002E0286A40F00100286260
:100BC000E06841F2883B98B1FFF780FD82460BE078
:100BD000286A40F004002862EEE700BFFFF776FDC8
:100BE000A0EB0A0159455AD8286A8007F6D50CE0CF
:100BF000FFF76CFD824605E0FFF768FDA0EB0A01F8
:100C000059454CD8286A8007F6D41FB1E86920F00E
:100C10008050E861E06988B36968C1F38101022905
:100C200044D00228C6F8608004D0FFF74FFD044688
:100C300038E034E0FFF74AFD074604E0FFF746FDE1
:100C4000C01B02282BD828688001F7D4206AB0F591
:100C5000803F05D16868A16820F4003008436860CF
:100C6000D4E908010843696821F4741108436860F5
:100C7000C6F86090FFF72AFD044606E025E000BFB5
:100C8000FFF724FD001B022809D828688001F7D54A
:100C90001BE000BFFFF71AFD001B022802D903204A
:100CA000BDE8F88F28688001F4D40EE00128F7D061
:100CB0006868226A00F48031914204D1616A00F4CC
:100CC0007010884201D00120EAE70020E8E7000028
:100CD0000010024000004242800442420C0000200A
:100CE0000070004010B5401EB0F1807F01D301209C
:100CF00010BD4FF0E02460610F21601700F043FA4F
:100D00000020A06107202061002010BD70B5040004
:100D100004D094F83D00002510B106E0012070BD1C
:100D200084F83C50204600F023F8242084F83D004D
:100D30002068C16821F40051C160204600F094F998
:100D40002068016921F4904101612068416921F026
:100D50002A0141612068C16841F40051C1602564E5
:100D6000202084F83D0084F83E00002070BD000083
:100D700030B585B000240094019402940394006877
:100D80001449884224D11448816941F48041816129
:100D9000816901F480410491816941F0040181611C
:100DA00080690E4D00F0040004904FF40070009034
:100DB000022001900320039069462846FFF788FB34
:100DC0002815CDE90004694628460294FFF780FB08
:100DD00005B030BD0038014000100240000801405D
:100DE0002DE9F84F044690F83E009A4616460D4607
:100DF000202853D1FDB1F6B194F83C0001284DD024
:100E0000012084F83C0000272764222084F83E005B
:100E10002763FFF75BFCA6858146E685A0684FF453
:100E20008058404501D1206940B12E465FF0000551
:100E300084F83C7027E00120BDE8F88F0026F7E732
:100E40004B46002220212046CDF800A000F068F992
:100E500008B10320F0E726B1A06840451BD038B1A7
:100E600008E020684068C0F3080025F8020B07E09E
:100E7000206980B12068406800F07F0006F8010B0F
:100E8000E08D401EE085E08D0028D9D1202084F837
:100E90003E000020D0E720684068EFE70220CBE763
:100EA0002DE9F843044690F83D001F4616460D46CE
:100EB00020284CD1C5B1BEB194F83C00012846D0E1
:100EC000012084F83C004FF00008C4F84080212045
:100ED00084F83D00FFF7FAFBA6848146E684A0680B
:100EE000B0F5805F03D004E00120BDE8F8832069FD
:100EF00028B12E465FF0000584F83C800EE0002605
:100F0000FAE78021204600F00BF9A0B9AEB116F83F
:100F1000010B21684860E08C401EE084E08C4B4669
:100F20004FF0000200970028EBD14FF0400120461F
:100F300000F0F6F830B10320D7E735F8020BC0F324
:100F40000800E6E7202084F83D000020CDE70220DD
:100F5000CBE7FEE770B586B00024184800940194F2
:100F600002940394816941F010018161816901F06B
:100F700010010491816941F020018161816901F0D2
:100F800020010491816941F00401816180690C4E66
:100F900000F004004FF4005504900022294630462A
:100FA000FFF78EFB01200095CDE90104022003909C
:100FB00069463046FFF78CFA06B070BD001002405B
:100FC000001001400C4810B50A4901604FF4E131AE
:100FD0004160002181600C22C160C0E9041281617E
:100FE000C161FFF793FE002803D0BDE81040FFF772
:100FF0006DBA10BD0038014010000020FEE7FEE78A
:1010000070477047FFF768BB30B58FB0282168463E
:10101000FFF70DF914210AA8FFF709F901210804C7
:10102000CDE900100024029402250491CDE9075077
:101030004FF4E01009906846FFF7C4FC08B172B69F
:10104000FEE70F20CDE90A054FF48060CDE90C40A2
:1010500002210AA80E94FFF7C9FB002801D072B63E
:10106000FEE70FB030BD704770B5044600680169F7
:10107000E26821F44051114301612169A0680843ED
:10108000616908432168CA6841F20C639A430243CC
:10109000CA6020684169A26921F44071114341612D
:1010A0001E492068884202D1FFF746FC01E0FFF7A5
:1010B00033FC00EBC00101EB00126068642180008A
:1010C000B2FBF0F3B3FBF1F36FF018067343B2FB1E
:1010D000F0F5B2FBF0F605EB8305322303EB0515C3
:1010E000B5FBF1F5B6FBF1F605F0F00505EB0615DD
:1010F000B2FBF0F6B2FBF0F0B0FBF1F06FF01802CB
:10110000504306EB800003EB0010B0FBF1F02168C8
:1011100000F00F002844886070BD000000380140D6
:101120002DE9F041984617460E460446069D1DE0FF
:10113000681C1BD02DB1FFF7C9FAA0EB0800A8422C
:1011400014D92068C16821F4D071C1602068416958
:1011500021F001014161202084F83D0084F83E0027
:10116000002084F83C000320BDE8F081206800687E
:1011700036EA000004D00020B842D9D00020F3E7BE
:101180000120F9E7FEE70907090E002804DB00F15A
:10119000E02080F80014704700F00F0000F1E0201C
:1011A00080F8141D70470000FFF79EFAFFF72CFF30
:1011B000FFF7D0FEFFF706FF0A242046FFF708F8E6
:1011C00005462046FFF704F80646002000F16101BD
:1011D0002954401CA042F9DB28190D2100F8021DFA
:1011E0000A21DFF84C8041704FF400574FF47A79B0
:1011F00039464046FFF75CFA0A230D220DA111483B
:10120000FFF74EFE22460A2329460E48FFF748FE06
:101210004B460A2231460B48FFF7E2FD0028E7D192
:1012200022460A2331460748FFF73AFEE0E700006E
:10123000001001407072696E7420636861720D0A5B
:10124000000000001000002000000000000000006E
:10125000010203040607080900000000010203045C
:101260008012000800000020100000002801000883
:101270009012000810000020A80600004401000899
:101280000100000010000000000000000024F40035
:04000005080000ED02
:00000001FF
