:020000040800F2
:100000003807002091010008FF190008C3180008F4
:10001000FD19000809060008E91B0008000000009F
:10002000000000000000000000000000031A0008AB
:100030004306000800000000011A00084D1A0008DD
:10004000AB010008AB010008AB010008AB010008E0
:10005000AB010008AB010008AB010008AB010008D0
:10006000AB010008AB010008AB0100080D06000859
:10007000AB010008AB010008AB010008AB010008B0
:10008000AB010008AB010008AB010008AB010008A0
:10009000AB010008AB010008AB010008AB01000890
:1000A000AB010008AB010008AB010008AB01000880
:1000B000AB010008AB010008AB010008AB01000870
:1000C000AB010008AB010008AB010008AB01000860
:1000D000AB010008AB010008AB010008AB01000850
:1000E000AB010008AB010008AB01000800F002F80A
:1000F00000F03EF80AA090E8000C82448344AAF184
:100100000107DA4501D100F033F8AFF2090EBAE881
:100110000F0013F0010F18BFFB1A43F0010318473B
:10012000CC1B0000EC1B0000103A24BF78C878C13B
:10013000FAD8520724BF30C830C144BF04680C60ED
:10014000704700000023002400250026103A28BF35
:1001500078C1FBD8520728BF30C148BF0B60704739
:100160001FB59DE8030000F0CFF81FBD10B510BD0E
:1001700000F026F91146FFF7F3FF01F075FD00F0DE
:1001800044F903B4FFF7F2FF03BC00F075F9000077
:100190000948804709480047FEE7FEE7FEE7FEE71B
:1001A000FEE7FEE7FEE7FEE7FEE7FEE70448054957
:1001B000054A064B70470000C91A0008ED00000808
:1001C00038010020380700203803002038030020C1
:1001D00070B5064600F07CF8056806F10B0020F0CB
:1001E0000704B4429CBF002070BD2B466A68BAB1B8
:1001F0001068A04210D304F1080188423CBF506847
:10020000586007D35168101941601168091B0160DB
:1002100058601460101D70BD13465268002AE7D163
:100220002146284600F05CF80028DED170BD70B58C
:100230000446051F00F04CF80068002C14BF446809
:1002400070BD002C18BFAC423CBF20466468F8D398
:1002500001680A18AA4218BF456003D12A680546FA
:100260001144016028684119A1421CBF6C6070BD37
:100270006168696021680844286070BD4FF0000221
:1002800000B5134694469646203922BFA0E80C508C
:10029000A0E80C50B1F12001BFF4F7AF090728BF67
:1002A000A0E80C5048BF0CC05DF804EB890028BFE3
:1002B00040F8042B08BF704748BF20F8022B11F00C
:1002C000804F18BF00F8012B704770477047704788
:1002D00000487047E0000020704770477047704743
:1002E00038B504460A4600206946AFF3008000286E
:1002F00008BF38BD02460099204600F03FF80120B3
:1003000038BD012000F054B8F8B5AFF300800546C1
:1003100000200C46102000BF0646A819A0420DD9A7
:10032000324669460020AFF30080070008BF00F0A6
:100330003FF80098A04218BF0546C419FFF7C8FF50
:1003400005600746F01D20F007004619284600F01A
:100350000AF8B44208BFF8BDA21B31463868BDE8B0
:10036000F84000F00BB800210160C0E901107047AF
:100370001020704700487047D800002003464068AE
:100380008C46002818BF88423CBF03464068F8D31B
:1003900018681844884207D00CF1030020F00700C9
:1003A000001D411A521A0146081D0A60FFF73FBF9F
:1003B00010B500F039F8BDE8104000F02FB87047D4
:1003C0007546FFF7D7FFAE4605006946534620F055
:1003D0000700854618B020B5FFF7E8FEBDE82040CD
:1003E0004FF000064FF000074FF000084FF0000BF1
:1003F00021F00701AC46ACE8C009ACE8C009ACE8A4
:10040000C009ACE8C0098D46704710B50446AFF38B
:1004100000802046BDE81040FFF7B3BE002801D0A1
:1004200000F02AB87047000010B5012805D000215F
:1004300003A000F027F8012010BD09A1F8E7000093
:1004400053494752544D454D3A204F7574206F66BD
:100450002068656170206D656D6F72790000000025
:100460003A2048656170206D656D6F727920636F09
:10047000727275707465640001491820ABBEFEE7A6
:100480002600020070B505460C460A2000E06D1CEF
:1004900000F011F835B128780028F8D102E0641C8A
:1004A00000F009F814B120780028F8D1BDE87040B8
:1004B0000A20AFF3008008B569468DF800000320DC
:1004C000ABBE08BD70B5044600688168C943C90762
:1004D00017D1816821F00101816000F027FD0546F8
:1004E0000AE000BF00F022FD401B022804D920686A
:1004F0008068C043C00706D020688068C043C0073A
:10050000F0D0002070BDA06A40F01000A062E06A48
:1005100040F00100E062012070BD10B50146406A64
:10052000826A12F0500F05D0006A026BBDE81040DD
:1005300008461047816A41F4007181620168896848
:10054000C1F3424107290CD1017B51B9816A21F4E1
:1005500080718162816AC90403D4816A41F001011A
:10056000816200F05BF910BD10B5406A816A41F00C
:1005700040018162C16A41F00401C16200F05BF98F
:1005800010BD10B5406A00F055F910BDF8B5002651
:100590000446009600688168C943C9072DD0816868
:1005A00041F001018160164816490068B0FBF1F086
:1005B00000E0401E00900028FBD100F0B7FC05468B
:1005C00016E000BF00F0B2FC401B022810D92068E2
:1005D0008068C043C0070BD0A06A40F01000A06242
:1005E000E06A40F00100E06284F824600120F8BD78
:1005F00020688068C043C007E4D10020F8BD000037
:100600001000002040420F00FEE70000014800F00B
:100610006DBA00005000002030B590F84050012421
:10062000AC40C56B6C60046863604368102B036862
:1006300003D099600068C26030BD9A600068C160F4
:1006400030BD704772B6FEE7F8B500250446009548
:1006500090F82400012808D0012084F824002046C6
:10066000FFF730FF060002D053E00220F8BDA06A79
:1006700020F4885040F00200A062022000F0F4FC58
:1006800026490968B1FBF0F0400000E0401E0090F0
:100690000028FBD12046FFF779FF2068816841F0F0
:1006A0000801816000F042FC074608E000F03EFCD3
:1006B000C01B0A2803D920688068000715D4206869
:1006C00080680007F2D42068816841F004018160ED
:1006D00000F02CFC074612E000F028FCC01B0A28A2
:1006E0000DD920688068400709D5A06A20F0020073
:1006F00040F01000A06284F824500120F8BD20686A
:1007000080684007E8D4A06A20F0020040F00100B1
:10071000A06284F824503046F8BD0000100000208C
:10072000F8B50024009490F824202546012A12D020
:10073000012280F824204A681F23072A0DD2066868
:10074000776B521E02EB820293409F430B689340EB
:100750001F43776319E00220F8BD06680D2A0AD20C
:10076000376BD21F02EB820293409F430B6893408A
:100770001F43376309E0F76A0D3A02EB82029340A8
:100780009F430B6893401F43F7620A68072306687C
:100790000A2A0AD3F7680A3A02EB420293409F43BF
:1007A0008B6893401F43F76008E0376902EB420211
:1007B00093409F438B6893401F4337610A68102A18
:1007C00001D0112A20D1124B02689A4217D19368A6
:1007D0001B0219D4936843F400039360096810293D
:1007E00012D10C490C4A0968B1FBF2F101EB81010D
:1007F000490000E0491E00910029FBD104E0816A14
:1008000041F020018162012480F824502046F8BD87
:10081000002401401000002040420F00034988429C
:1008200002D1034901200870704700002000002019
:1008300000000020704770472DE9F0414FF000079D
:1008400004003D467ED0A06A002628B9E66284F8FE
:100850002460204600F07EF82046FFF733FEA16AB0
:1008600001F01001014304D0A06A40F01000A06222
:1008700068E0A16A21F4885141F00201A162626836
:10088000E169237B0A4347EA43010A43A1684FF425
:100890008077B94208D0012906D0002194F814C00D
:1008A000BCF1010F02D00AE03946F7E7F3B1A36AC1
:1008B00043F02003A362E36A43F00103E362236889
:1008C000D3F804C02CF4694C4CEA010CC3F804C002
:1008D00023689968DFF870C001EA0C011143996040
:1008E000A168B9420BD0012909D00CE0DFF85CC047
:1008F000A3690CEB43330B4343F40061DFE7218A28
:100900000D05A5F580152168CB6A23F470032B43F0
:10091000CB62216889680E4B1940914208D1E6628A
:10092000A16A21F0020141F00101A162BDE8F0815C
:10093000A06A20F0020040F01000A062E06A40F0DF
:100940000100E0620120F1E7FDF7E1FF00E0FFFFB9
:10095000FE0E1FFF70B586B0002506460095019576
:10096000029503950068194988422DD11849886974
:1009700040F400708861886900F400700490886910
:1009800040F0040088618869694600F00400049022
:100990000320009001900F4800F0CAF90F4C0E4858
:1009A000C4E900058020C4E90250400020618000B5
:1009B00060612020C4E90605204600F041F908B135
:1009C000FFF740FE3462666206B070BD002401404D
:1009D00000100240000801400800024050000020C2
:1009E0002DE9F047894604463B4900683B4F0E1D00
:1009F0009046884201D0B84207D1306810F4702F79
:100A000003D001252846BDE8F08794F8240001288A
:100A10000CD0012084F824002046FFF7B7FD050024
:100A20004FF0000004D084F82400EBE70220EAE74E
:100A3000A16A40F60162914341F48071A16221688C
:100A4000B94218D1326812F4702F14D0A16A41F45F
:100A50008011A1623168490505D5A16A21F40051D0
:100A600041F48051A162A16AC9040AD5E16A21F06A
:100A70000601E16206E0A26A22F48012A2624968DD
:100A8000E9E7E06284F82400216A15488862216A57
:100A90001448C862216A1448086321686FF0020094
:100AA00008602068816841F4807181602168434654
:100AB0004A464C31206A00F0F1F820688168C1F3A1
:100AC00042410729816803D041F48011816099E790
:100AD00041F4A001FAE70000002401400028014091
:100AE0001B05000883050008690500082DE9F05F73
:100AF000C16B0C6801680B68D0F840C0042202FA90
:100B00000CF2494DDFF824A1494E4A4FDFF828B1D5
:100B1000DFF828E122422CD05A072AD50A6892062B
:100B200003D40A6822F004020A600168A94201D1D4
:100B3000042219E0514501D1402215E0B14202D111
:100B40004FF4806210E0B94202D14FF480420BE0D2
:100B5000594502D14FF4802206E0714502D14FF48D
:100B6000800201E04FF080622F4908394A60C16A73
:100B70003BE04FF0020808FA0CF818EA040F4FF0B7
:100B800000094FF0010235D05FEA837832D50B6857
:100B90009B0605D40B6823F00A030B6080F8212024
:100BA0000168A94201D1022219E0514501D1202258
:100BB00015E0B14202D14FF4007210E0B94202D107
:100BC0004FF400520BE0594502D14FF4003206E0D9
:100BD000714502D14FF4001201E04FF0007212494A
:100BE00008394A6080F82090816A00291AD0BDE84F
:100BF000F05F0847082505FA0CF5254212D01B07BF
:100C000010D50B6823F00E030B6090F84010C36BF7
:100C100002FA01F15960826380F8212080F8209067
:100C2000016BE2E7BDE8F09F080002401C000240B3
:100C30003000024044000240580002406C00024074
:100C400030B528B308C8134914221944B1FBF2F196
:100C50008900C16310498163022141771A6843F614
:100C6000F0718A43D0E900142143D0E902452C43B6
:100C70002143046921434469214384692143114389
:100C8000196000214163012242770177084630BD97
:100C9000012030BDF8FFFDBF0000024070B50446E2
:100CA00090F82000002501280CD0012084F82000B5
:100CB00094F821600020012E06D084F8200002253F
:100CC000284670BD022070BD022684F82160A06312
:100CD0002068066826F0010606602046FFF79CFCA7
:100CE000E06A00282068016802D041F00E0106E0A9
:100CF00021F0040101602068016841F00A010160EF
:100D00002068016841F001010160D9E770B504462F
:100D100000F00CF90546601C02D004480078044439
:100D200000F004F9401BA042FAD370BD040000207B
:100D30002DE9F84FDFF8B891002409F1040A0AF10F
:100D4000040B23460F270BF1040EC9E00125A54033
:100D50002A40AA427DD1674ED1F804C0ACEB060808
:100D6000B44532D014DCBCF1030F3AD009DCBCF13D
:100D7000000F2AD0BCF1010F1CD0BCF1020F31D101
:100D80001DE0BCF1110F17D0BCF1120F2AD119E0F0
:100D9000B8F5881F19D006DCB8F5803F15D0B8F536
:100DA000801F1FD111E0B8F5001F0ED0B8F5041F49
:100DB00018D10AE0CB6815E0CB681B1D12E0CB68A8
:100DC00008330FE0CB680C330CE08B682BB1012BA0
:100DD0004FF0080303D0456104E0042302E00561FD
:100DE00000E00023FF2A01D8064601E000F10406D6
:100DF0004FEA840501D9A5F12005D6F8008007FA4D
:100E000005FC28EA0C0803FA05F548EA0508C6F8C7
:100E100000804D68ED0062D5374DAE6946F00106A1
:100E2000AE61AD6924F0030605F001050095334D70
:100E300006EB050CDCF80850A607360F07FA06F893
:100E400025EA0805DFF8B880404503D14FF00008D7
:100E500017E044E0DFF8AC80404502D14FF00108D4
:100E60000FE0DFF8A480404502D14FF0020808E00F
:100E7000DFF89880404502D14FF0030801E04FF0C1
:100E8000040808FA06F848EA0508CCF808804D6816
:100E9000D9F80060ED034D4601D5164300E09643B6
:100EA0002E604D68DAF80060AD03554601D5164353
:100EB00000E096432E604D68DBF80060ED025D4671
:100EC00001D5164300E096432E604D68DEF80060C1
:100ED000AD02754601D5164300E096432E60641CB2
:100EE0000D682A46E5407FF431AFBDE8F88F000079
:100EF00000040140000011100010024000000140F9
:100F000000080140000C01400010014000140140A5
:100F1000C26821EA02030A4043EA024101617047C4
:100F20000AB1016170470904FBE7000001488068CD
:100F300070470000040000200248816802781144D4
:100F40008160704704000020074810B5016841F037
:100F500010010160032000F075F80F2000F006F882
:100F600000F024F8002010BD0020024070B50D4DA7
:100F700004464FF47A712878B1FBF0F00A49096809
:100F8000B1FBF0F000F0C6FB48B9102C07D20022EC
:100F90002146501E00F036F800206C6070BD012024
:100FA00070BD000004000020100000200C4808B5AF
:100FB000816941F001018161816901F001010091C4
:100FC000C16941F08051C161C06900F0805000905A
:100FD0000448416821F0E06141F00071416008BDC2
:100FE0000010024000000140002809DB00F01F0251
:100FF000012191404009800000F1E020C0F800117B
:1010000070470000F0B40E4B1B680C46C3F302237C
:10101000C3F10705042D00D90425191D072901D2A4
:10102000002300E0DB1E012606FA05F1491E2140DF
:1010300099409E40761E16403143F0BC00F0D5BD6D
:101040000CED00E0064900F0070208684FF6FF03C8
:10105000184040EA0220034A10430860704700002D
:101060000CED00E00000FA0510B529A401461DCCE6
:1010700086B08DE81D002AA02A4C0068049000204C
:10108000012923D002293AD010291DD16168226894
:10109000D20119D5C1F38342C9031DF8020009D555
:1010A000616804AAC1F34041515C1F4AB2FBF1F1EF
:1010B000484301E01D4948436168490204D44000A7
:1010C0005FF00301B0FBF1F006B010BD226AC2F37D
:1010D0000121012903D1920701D5C803F4E70229B0
:1010E00005D1626A920702D549F64040ECE7032930
:1010F000EAD121688903E7D54FF22440E4E700F004
:1011000033F96168C1F38131491C4900DAE7000015
:1011100002030405060708090A0B0C0D0E0F101038
:10112000010200000010024000127A0000093D0098
:101130002DE9F84305460078354CC00754D0E069E6
:101140000026C00008D4E06940F08050E061E0690A
:10115000012600F0805000902E480168C90512D485
:101160000168804641F480710160FFF7DFFE0746A9
:1011700005E000BFFFF7DAFEC01B642823D8D8F8CB
:101180000000C005F6D5206A10F4407021D0A9886F
:1011900001F4407181421CD0206A1F49012220F4D1
:1011A00040700A6000220A602062C00711D0FFF779
:1011B000BDFE074641F2883808E000BFFFF7B6FEE3
:1011C000C11B414502D90320BDE8F883206A80078E
:1011D000F4D5206A696820F44070084320621EB18B
:1011E000E06920F08050E0612878800705D56068CC
:1011F000A96820F44040084360602878C00605D5FF
:101200006068E96820F48000084360600020DBE744
:101210000010024000700040400442422DE9F047B7
:101220000F46050061D0434E306800F00700B84219
:1012300009D2306820F0070038433060306800F091
:101240000700B84251D128683B4C810712D54007AE
:1012500003D5606840F4E06060602878000703D53B
:10126000606840F4605060606068A96820F0F00039
:10127000084360602878C00728D06868012810D02B
:101280002168022810D0890700292EDA616821F030
:10129000030101436160FFF749FE804641F288394E
:1012A0000DE021688903EFE78901EDE7FFF73EFED6
:1012B000A0EB0801494502D90320BDE8F08760682A
:1012C000696800F00C00B0EB810FEFD1306800F0DE
:1012D0000700B8420BD9306820F00700384330606F
:1012E000306800F00700B84201D00120E5E7287817
:1012F000400705D56068E96820F4E0600843606055
:101300002878000706D56068296920F4605040EA13
:10131000C100606000F038F86168084AC1F3031149
:10132000515CC8400649086006480068FFF71EFE89
:101330000020C2E70020024000100240D41C000838
:101340001000002008000020044805490068496892
:10135000044AC1F30221515CC840704710000020CC
:1013600000100240E41C0008044805490068496870
:10137000044AC1F3C221515CC840704710000020EC
:1013800000100240E41C000812A185B00FC98DE8CE
:101390000F0014A0144A006804905168134801F02B
:1013A0000C03042B10D0082B0ED1C1F38343C903C7
:1013B0001DF803000AD5516804AAC1F34041515CED
:1013C0000A4A5043B0FBF1F005B070470849484362
:1013D000FAE7000002030405060708090A0B0C0DD2
:1013E0000E0F1010010200000010024000127A00DF
:1013F00000093D002DE9F84F040070D02078C04D61
:10140000C00749D06868C0F38100012807D0686828
:10141000C0F38100022809D16868C00306D5286896
:10142000800339D560680028E7D035E06068B0F502
:10143000803F0BD010B1B0F5A02F11D0286820F458
:1014400080302860286820F4802002E0286840F47A
:1014500080302860606890B1FFF768FD06460AE0BA
:10146000286840F480202860F0E700BFFFF75EFDA9
:10147000801B642873D828688003F7D50CE0FFF739
:1014800055FD064605E000BFFFF750FD801B6428B0
:10149000F0D828688003F7D420789A4E80074FF060
:1014A00001094FF0000839D5686810F00C0F07D01B
:1014B0006868C0F38100022809D16868C00306D4B7
:1014C0002868800714D52069012808D110E0206918
:1014D000B0B1C6F80090FFF729FD074605E00AE124
:1014E000FFF724FDC01B0228C4D828688007F7D561
:1014F0002868616920F0F80040EAC10028600DE02A
:10150000C6F80080FFF712FD074604E0FFF70EFD66
:10151000C01B022823D828688007F7D4207800074A
:101520002CD57948A169D9B1C0F80090FFF7FEFC2D
:10153000074604E0FFF7FAFCC01B02280FD8686AD0
:101540008007F7D571484FF4FA510068B0FBF1F00D
:10155000009000BF0098411E0091FAD20EE080E09A
:10156000C0F80080FFF7E2FC074604E0FFF7DEFC6E
:10157000C01B022875D8686A8007F7D42078400716
:1015800060D5E8690027C00008D4E86940F08050C1
:10159000E861E869012700F0805000905C4801682C
:1015A000C90513D40168834641F480710160FFF7D7
:1015B000BDFC824606E000BFFFF7B8FCA0EB0A00C6
:1015C00064284ED8DBF80000C005F5D5E068012896
:1015D0000AD008B1052813D0286A20F0010028623B
:1015E000286A20F0040002E0286A40F00100286226
:1015F000E06841F2883B98B1FFF798FC82460BE027
:10160000286A40F004002862EEE700BFFFF78EFC76
:10161000A0EB0A0159455AD8286A8007F6D50CE094
:10162000FFF784FC824605E0FFF780FCA0EB0A018F
:1016300059454CD8286A8007F6D41FB1E86920F0D4
:101640008050E861E06988B36968C1F381010229CB
:1016500044D00228C6F8608004D0FFF767FC044637
:1016600038E034E0FFF762FC074604E0FFF75EFC79
:10167000C01B02282BD828688001F7D4206AB0F557
:10168000803F05D16868A16820F400300843686095
:10169000D4E908010843696821F4741108436860BB
:1016A000C6F86090FFF742FC044606E025E000BF64
:1016B000FFF73CFC001B022809D828688001F7D5F9
:1016C0001BE000BFFFF732FC001B022802D90320F9
:1016D000BDE8F88F28688001F4D40EE00128F7D027
:1016E0006868226A00F48031914204D1616A00F492
:1016F0007010884201D00120EAE70020E8E70000EE
:1017000000100240000042428004424210000020CB
:101710000070004010B5401EB0F1807F01D3012061
:1017200010BD4FF0E02460610F21601700F05DFAFA
:101730000020A06107202061002010BD70B50400CA
:1017400004D094F83D00002510B106E0012070BDE2
:1017500084F83C50204600F023F8242084F83D0013
:101760002068C16821F40051C160204600F0AEF944
:101770002068016921F4904101612068416921F0EC
:101780002A0141612068C16841F40051C1602564AB
:10179000202084F83D0084F83E00002070BD000049
:1017A00030B585B00024009401940294039400683D
:1017B0001449884224D11448816941F480418161EF
:1017C000816901F480410491816941F004018161E2
:1017D00080690E4D00F0040004904FF400700090FA
:1017E000022001900320039069462846FFF7A0FAE3
:1017F0002815CDE90004694628460294FFF798FAB7
:1018000005B030BD00380140001002400008014022
:101810002DE9F843044690F83D001F4616460D4654
:1018200020284CD1C5B1BEB194F83C00012846D067
:10183000012084F83C004FF00008C4F840802120CB
:1018400084F83D00FFF772FBA6848146E684A06819
:10185000B0F5805F03D004E00120BDE8F883206983
:1018600028B12E465FF0000584F83C800EE000268B
:10187000FAE78021204600F085F9A0B9AEB116F84C
:10188000010B21684860E08C401EE084E08C4B46F0
:101890004FF0000200970028EBD14FF040012046A6
:1018A00000F070F930B10320D7E735F8020BC0F330
:1018B0000800E6E7202084F83D000020CDE7022064
:1018C000CBE7FEE7FEB500241648009401941449C6
:1018D0000294016089158160012505730475022653
:1018E00006614FF460214460C161FEF7A5FF08B1B5
:1018F000FEF7A8FECDE9004569460A480294FEF7C6
:101900000FFF08B1FEF79EFECDE900566946054877
:10191000FEF706FF002801D0FEF794FEFEBD000092
:101920000024014020000020094808B5416941F029
:10193000010141614069002200F00100009007218F
:101940000B20FFF75FFBBDE808400B20FFF74CBB07
:101950000010024070B586B000241848009401942D
:1019600002940394816941F010018161816901F061
:1019700010010491816941F020018161816901F0C8
:1019800020010491816941F00401816180690C4E5C
:1019900000F004004FF40055049000222946304620
:1019A000FFF7BEFA01200095CDE901040220039063
:1019B00069463046FFF7BCF906B070BD0010024022
:1019C000001001400C4810B50A4901604FF4E131A4
:1019D0004160002181600C22C160C0E90412816174
:1019E000C161FFF7ABFE002803D0BDE81040FEF751
:1019F00029BE10BD0038014094000020FEE7FEE73C
:101A0000704770472DE9F0418046570015460E4655
:101A10003846FEF7DDFB044600200AE036F81010D9
:101A200004EB4002090A04F8101016F81010517067
:101A3000401CA842F2DB64233A4621464046FFF7A9
:101A4000E7FE2046BDE8F041FEF7F1BBFFF774BAB0
:101A500030B593B028216846FEF710FC14210AA87F
:101A6000FEF70CFC002501200F951095119501043F
:101A700012958DE8230004904FF4E010CDE9081092
:101A8000022407946846FFF7B5FC08B172B6FEE77A
:101A90000AA90F2081E831004FF48060CDE90D05DF
:101AA00002210AA8FFF7BAFB08B172B6FEE74FF4AD
:101AB000004011900F940FA8FFF73AFB002801D0C7
:101AC00072B6FEE713B030BD7047000070B5044633
:101AD00000680169E26821F4405111430161216904
:101AE000A0680843616908432168CA6841F20C6331
:101AF0009A430243CA6020684169A26921F4407197
:101B0000114341611E492068884202D1FFF72CFC35
:101B100001E0FFF719FC00EBC00101EB0012606867
:101B200064218000B2FBF0F3B3FBF1F36FF0180611
:101B30007343B2FBF0F5B2FBF0F605EB83053223FD
:101B400003EB0515B5FBF1F5B6FBF1F605F0F00575
:101B500005EB0615B2FBF0F6B2FBF0F0B0FBF1F0CE
:101B60006FF01802504306EB800003EB0010B0FB4F
:101B7000F1F0216800F00F002844886070BD00007B
:101B8000003801402DE9F041984617460E460446BC
:101B9000069D1DE0681C1BD02DB1FFF7C7F9A0EB17
:101BA0000800A84214D92068C16821F4D071C1602E
:101BB0002068416921F001014161202084F83D0045
:101BC00084F83E00002084F83C000320BDE8F0814A
:101BD0002068006836EA000004D00020B842D9D05E
:101BE0000020F3E70120F9E7FEE70907090E0028C6
:101BF00004DB00F1E02080F80014704700F00F00D3
:101C000000F1E02080F8141D70470000F8B50020B6
:101C1000124B6A46032400905FF0000100EB41067E
:101C200032F8105033F81660491C354422F8105031
:101C30000329F3DBA9B2B1FBF4F122F81010401C28
:101C40000228E9DB022269460548FFF7DBFE06228F
:101C500002490448FEF7C4FEF8BD0000140000204D
:101C600094000020200000200024FFF76DF9FFF70A
:101C7000EFFEFFF76FFEFFF757FEFFF723FEFFF7BC
:101C8000A1FE1048FEF7E0FC06220F490D48FEF7C2
:101C9000A7FE0E4D4FF40057DFF83480002604E015
:101CA00039464046FFF734F90024287810B12E70E9
:101CB000FFF7ACFF641CE4B20A20FFF727F8322CD0
:101CC000F3D1EDE7200000201400002000000020E8
:101CD00000100140000000000000000001020304A9
:101CE0000607080900000000010203040C1D00089B
:101CF000000000201400000028010008201D00083A
:101D00001400002024070000440100080000000027
:101D10000100000010000000000000000024F4009A
:04000005080000ED02
:00000001FF
